{
  "contractName": "DecentralBank",
  "abi": [
    {
      "inputs": [
        {
          "internalType": "contract RWD",
          "name": "_rwd",
          "type": "address"
        },
        {
          "internalType": "contract Tether",
          "name": "_tether",
          "type": "address"
        }
      ],
      "stateMutability": "nonpayable",
      "type": "constructor"
    },
    {
      "anonymous": false,
      "inputs": [
        {
          "indexed": true,
          "internalType": "address",
          "name": "user",
          "type": "address"
        },
        {
          "indexed": false,
          "internalType": "uint256",
          "name": "amount",
          "type": "uint256"
        }
      ],
      "name": "TokensDeposited",
      "type": "event"
    },
    {
      "inputs": [
        {
          "internalType": "address",
          "name": "",
          "type": "address"
        }
      ],
      "name": "hasStaked",
      "outputs": [
        {
          "internalType": "bool",
          "name": "",
          "type": "bool"
        }
      ],
      "stateMutability": "view",
      "type": "function",
      "constant": true
    },
    {
      "inputs": [
        {
          "internalType": "address",
          "name": "",
          "type": "address"
        }
      ],
      "name": "isStaked",
      "outputs": [
        {
          "internalType": "bool",
          "name": "",
          "type": "bool"
        }
      ],
      "stateMutability": "view",
      "type": "function",
      "constant": true
    },
    {
      "inputs": [],
      "name": "name",
      "outputs": [
        {
          "internalType": "string",
          "name": "",
          "type": "string"
        }
      ],
      "stateMutability": "view",
      "type": "function",
      "constant": true
    },
    {
      "inputs": [],
      "name": "owner",
      "outputs": [
        {
          "internalType": "address",
          "name": "",
          "type": "address"
        }
      ],
      "stateMutability": "view",
      "type": "function",
      "constant": true
    },
    {
      "inputs": [],
      "name": "rwd",
      "outputs": [
        {
          "internalType": "contract RWD",
          "name": "",
          "type": "address"
        }
      ],
      "stateMutability": "view",
      "type": "function",
      "constant": true
    },
    {
      "inputs": [
        {
          "internalType": "uint256",
          "name": "",
          "type": "uint256"
        }
      ],
      "name": "staker",
      "outputs": [
        {
          "internalType": "address",
          "name": "",
          "type": "address"
        }
      ],
      "stateMutability": "view",
      "type": "function",
      "constant": true
    },
    {
      "inputs": [
        {
          "internalType": "address",
          "name": "",
          "type": "address"
        }
      ],
      "name": "stakingBalance",
      "outputs": [
        {
          "internalType": "uint256",
          "name": "",
          "type": "uint256"
        }
      ],
      "stateMutability": "view",
      "type": "function",
      "constant": true
    },
    {
      "inputs": [],
      "name": "tether",
      "outputs": [
        {
          "internalType": "contract Tether",
          "name": "",
          "type": "address"
        }
      ],
      "stateMutability": "view",
      "type": "function",
      "constant": true
    },
    {
      "inputs": [
        {
          "internalType": "uint256",
          "name": "_amount",
          "type": "uint256"
        }
      ],
      "name": "depositToken",
      "outputs": [],
      "stateMutability": "nonpayable",
      "type": "function"
    },
    {
      "inputs": [],
      "name": "unstakeTokens",
      "outputs": [],
      "stateMutability": "nonpayable",
      "type": "function"
    },
    {
      "inputs": [],
      "name": "issueTokens",
      "outputs": [],
      "stateMutability": "nonpayable",
      "type": "function"
    }
  ],
  "bytecode": "0x60806040526040518060400160405280600e81526020017f446563656e7472616c2042616e6b000000000000000000000000000000000000815250600090805190602001906200005192919062000150565b503480156200005f57600080fd5b506040516200169b3803806200169b8339818101604052810190620000859190620002c3565b81600360006101000a81548173ffffffffffffffffffffffffffffffffffffffff021916908373ffffffffffffffffffffffffffffffffffffffff16021790555080600260006101000a81548173ffffffffffffffffffffffffffffffffffffffff021916908373ffffffffffffffffffffffffffffffffffffffff16021790555033600160006101000a81548173ffffffffffffffffffffffffffffffffffffffff021916908373ffffffffffffffffffffffffffffffffffffffff16021790555050506200036e565b8280546200015e9062000339565b90600052602060002090601f016020900481019282620001825760008555620001ce565b82601f106200019d57805160ff1916838001178555620001ce565b82800160010185558215620001ce579182015b82811115620001cd578251825591602001919060010190620001b0565b5b509050620001dd9190620001e1565b5090565b5b80821115620001fc576000816000905550600101620001e2565b5090565b600080fd5b600073ffffffffffffffffffffffffffffffffffffffff82169050919050565b6000620002328262000205565b9050919050565b6000620002468262000225565b9050919050565b620002588162000239565b81146200026457600080fd5b50565b60008151905062000278816200024d565b92915050565b60006200028b8262000225565b9050919050565b6200029d816200027e565b8114620002a957600080fd5b50565b600081519050620002bd8162000292565b92915050565b60008060408385031215620002dd57620002dc62000200565b5b6000620002ed8582860162000267565b92505060206200030085828601620002ac565b9150509250929050565b7f4e487b7100000000000000000000000000000000000000000000000000000000600052602260045260246000fd5b600060028204905060018216806200035257607f821691505b6020821081036200036857620003676200030a565b5b50919050565b61131d806200037e6000396000f3fe608060405234801561001057600080fd5b50600436106100a95760003560e01c80636177fd18116100715780636177fd18146101425780636215be77146101725780638da5cb5b1461018e578063a5ce413b146101ac578063c93c8f34146101b6578063ea38fab0146101e6576100a9565b806306fdde03146100ae5780631a8972d3146100cc57806345bc78ab146100ea5780635efc071a1461011a57806360ab585214610138575b600080fd5b6100b6610216565b6040516100c39190610bdc565b60405180910390f35b6100d46102a4565b6040516100e19190610c7d565b60405180910390f35b61010460048036038101906100ff9190610cdb565b6102ca565b6040516101119190610d21565b60405180910390f35b6101226102e2565b60405161012f9190610d5d565b60405180910390f35b610140610308565b005b61015c60048036038101906101579190610cdb565b6104fe565b6040516101699190610d93565b60405180910390f35b61018c60048036038101906101879190610dda565b61051e565b005b6101966108f6565b6040516101a39190610e16565b60405180910390f35b6101b461091c565b005b6101d060048036038101906101cb9190610cdb565b610ae4565b6040516101dd9190610d93565b60405180910390f35b61020060048036038101906101fb9190610dda565b610b04565b60405161020d9190610e16565b60405180910390f35b6000805461022390610e60565b80601f016020809104026020016040519081016040528092919081815260200182805461024f90610e60565b801561029c5780601f106102715761010080835404028352916020019161029c565b820191906000526020600020905b81548152906001019060200180831161027f57829003601f168201915b505050505081565b600360009054906101000a900473ffffffffffffffffffffffffffffffffffffffff1681565b60056020528060005260406000206000915090505481565b600260009054906101000a900473ffffffffffffffffffffffffffffffffffffffff1681565b600160009054906101000a900473ffffffffffffffffffffffffffffffffffffffff1673ffffffffffffffffffffffffffffffffffffffff163373ffffffffffffffffffffffffffffffffffffffff1614610398576040517f08c379a000000000000000000000000000000000000000000000000000000000815260040161038f90610edd565b60405180910390fd5b60005b6004805490508110156104fb576000600482815481106103be576103bd610efd565b5b9060005260206000200160009054906101000a900473ffffffffffffffffffffffffffffffffffffffff16905060006009600560008473ffffffffffffffffffffffffffffffffffffffff1673ffffffffffffffffffffffffffffffffffffffff168152602001908152602001600020546104399190610f8a565b905060008111156104e657600360009054906101000a900473ffffffffffffffffffffffffffffffffffffffff1673ffffffffffffffffffffffffffffffffffffffff1663a9059cbb83836040518363ffffffff1660e01b81526004016104a1929190610fbb565b6020604051808303816000875af11580156104c0573d6000803e3d6000fd5b505050506040513d601f19601f820116820180604052508101906104e49190611010565b505b505080806104f39061103d565b91505061039b565b50565b60076020528060005260406000206000915054906101000a900460ff1681565b60008111610561576040517f08c379a0000000000000000000000000000000000000000000000000000000008152600401610558906110d1565b60405180910390fd5b6000600260009054906101000a900473ffffffffffffffffffffffffffffffffffffffff1673ffffffffffffffffffffffffffffffffffffffff1663dd62ed3e33306040518363ffffffff1660e01b81526004016105c09291906110f1565b602060405180830381865afa1580156105dd573d6000803e3d6000fd5b505050506040513d601f19601f82011682018060405250810190610601919061112f565b905081811015610646576040517f08c379a000000000000000000000000000000000000000000000000000000000815260040161063d906111a8565b60405180910390fd5b600260009054906101000a900473ffffffffffffffffffffffffffffffffffffffff1673ffffffffffffffffffffffffffffffffffffffff166323b872dd3330856040518463ffffffff1660e01b81526004016106a5939291906111c8565b6020604051808303816000875af11580156106c4573d6000803e3d6000fd5b505050506040513d601f19601f820116820180604052508101906106e89190611010565b5081600560003373ffffffffffffffffffffffffffffffffffffffff1673ffffffffffffffffffffffffffffffffffffffff168152602001908152602001600020600082825461073891906111ff565b92505081905550600660003373ffffffffffffffffffffffffffffffffffffffff1673ffffffffffffffffffffffffffffffffffffffff16815260200190815260200160002060009054906101000a900460ff166107f4576004339080600181540180825580915050600190039060005260206000200160009091909190916101000a81548173ffffffffffffffffffffffffffffffffffffffff021916908373ffffffffffffffffffffffffffffffffffffffff1602179055505b6001600760003373ffffffffffffffffffffffffffffffffffffffff1673ffffffffffffffffffffffffffffffffffffffff16815260200190815260200160002060006101000a81548160ff0219169083151502179055506001600660003373ffffffffffffffffffffffffffffffffffffffff1673ffffffffffffffffffffffffffffffffffffffff16815260200190815260200160002060006101000a81548160ff0219169083151502179055503373ffffffffffffffffffffffffffffffffffffffff167f59062170a285eb80e8c6b8ced60428442a51910635005233fc4ce084a475845e836040516108ea9190610d21565b60405180910390a25050565b600160009054906101000a900473ffffffffffffffffffffffffffffffffffffffff1681565b6000600560003373ffffffffffffffffffffffffffffffffffffffff1673ffffffffffffffffffffffffffffffffffffffff168152602001908152602001600020549050600081116109a3576040517f08c379a000000000000000000000000000000000000000000000000000000000815260040161099a906112c7565b60405180910390fd5b600260009054906101000a900473ffffffffffffffffffffffffffffffffffffffff1673ffffffffffffffffffffffffffffffffffffffff1663a9059cbb33836040518363ffffffff1660e01b8152600401610a00929190610fbb565b6020604051808303816000875af1158015610a1f573d6000803e3d6000fd5b505050506040513d601f19601f82011682018060405250810190610a439190611010565b506000600560003373ffffffffffffffffffffffffffffffffffffffff1673ffffffffffffffffffffffffffffffffffffffff168152602001908152602001600020819055506000600760003373ffffffffffffffffffffffffffffffffffffffff1673ffffffffffffffffffffffffffffffffffffffff16815260200190815260200160002060006101000a81548160ff02191690831515021790555050565b60066020528060005260406000206000915054906101000a900460ff1681565b60048181548110610b1457600080fd5b906000526020600020016000915054906101000a900473ffffffffffffffffffffffffffffffffffffffff1681565b600081519050919050565b600082825260208201905092915050565b60005b83811015610b7d578082015181840152602081019050610b62565b83811115610b8c576000848401525b50505050565b6000601f19601f8301169050919050565b6000610bae82610b43565b610bb88185610b4e565b9350610bc8818560208601610b5f565b610bd181610b92565b840191505092915050565b60006020820190508181036000830152610bf68184610ba3565b905092915050565b600073ffffffffffffffffffffffffffffffffffffffff82169050919050565b6000819050919050565b6000610c43610c3e610c3984610bfe565b610c1e565b610bfe565b9050919050565b6000610c5582610c28565b9050919050565b6000610c6782610c4a565b9050919050565b610c7781610c5c565b82525050565b6000602082019050610c926000830184610c6e565b92915050565b600080fd5b6000610ca882610bfe565b9050919050565b610cb881610c9d565b8114610cc357600080fd5b50565b600081359050610cd581610caf565b92915050565b600060208284031215610cf157610cf0610c98565b5b6000610cff84828501610cc6565b91505092915050565b6000819050919050565b610d1b81610d08565b82525050565b6000602082019050610d366000830184610d12565b92915050565b6000610d4782610c4a565b9050919050565b610d5781610d3c565b82525050565b6000602082019050610d726000830184610d4e565b92915050565b60008115159050919050565b610d8d81610d78565b82525050565b6000602082019050610da86000830184610d84565b92915050565b610db781610d08565b8114610dc257600080fd5b50565b600081359050610dd481610dae565b92915050565b600060208284031215610df057610def610c98565b5b6000610dfe84828501610dc5565b91505092915050565b610e1081610c9d565b82525050565b6000602082019050610e2b6000830184610e07565b92915050565b7f4e487b7100000000000000000000000000000000000000000000000000000000600052602260045260246000fd5b60006002820490506001821680610e7857607f821691505b602082108103610e8b57610e8a610e31565b5b50919050565b7f63616c6c6572206d757374206265206f776e6572000000000000000000000000600082015250565b6000610ec7601483610b4e565b9150610ed282610e91565b602082019050919050565b60006020820190508181036000830152610ef681610eba565b9050919050565b7f4e487b7100000000000000000000000000000000000000000000000000000000600052603260045260246000fd5b7f4e487b7100000000000000000000000000000000000000000000000000000000600052601260045260246000fd5b7f4e487b7100000000000000000000000000000000000000000000000000000000600052601160045260246000fd5b6000610f9582610d08565b9150610fa083610d08565b925082610fb057610faf610f2c565b5b828204905092915050565b6000604082019050610fd06000830185610e07565b610fdd6020830184610d12565b9392505050565b610fed81610d78565b8114610ff857600080fd5b50565b60008151905061100a81610fe4565b92915050565b60006020828403121561102657611025610c98565b5b600061103484828501610ffb565b91505092915050565b600061104882610d08565b91507fffffffffffffffffffffffffffffffffffffffffffffffffffffffffffffffff820361107a57611079610f5b565b5b600182019050919050565b7f616d6f756e742069732067726561746572207468616e20300000000000000000600082015250565b60006110bb601883610b4e565b91506110c682611085565b602082019050919050565b600060208201905081810360008301526110ea816110ae565b9050919050565b60006040820190506111066000830185610e07565b6111136020830184610e07565b9392505050565b60008151905061112981610dae565b92915050565b60006020828403121561114557611144610c98565b5b60006111538482850161111a565b91505092915050565b7f616d6f756e74206e6f7420617070726f76656400000000000000000000000000600082015250565b6000611192601383610b4e565b915061119d8261115c565b602082019050919050565b600060208201905081810360008301526111c181611185565b9050919050565b60006060820190506111dd6000830186610e07565b6111ea6020830185610e07565b6111f76040830184610d12565b949350505050565b600061120a82610d08565b915061121583610d08565b9250827fffffffffffffffffffffffffffffffffffffffffffffffffffffffffffffffff0382111561124a57611249610f5b565b5b828201905092915050565b7f7374616b696e672062616c616e63652063616e206e6f74206265206c6573732060008201527f7468616e207a65726f0000000000000000000000000000000000000000000000602082015250565b60006112b1602983610b4e565b91506112bc82611255565b604082019050919050565b600060208201905081810360008301526112e0816112a4565b905091905056fea2646970667358221220a85d6ff9d8d81f868b7e5faf59639590beec50d7b4fdab2080c6d14e379239c364736f6c634300080d0033",
  "immutableReferences": {},
  "source": "// SPDX-License-Identifier: GPL-3.0\r\n\r\npragma solidity >=0.5.0 <0.9.0;\r\n\r\nimport './RWD.sol';\r\nimport './Tether.sol';\r\n\r\ncontract DecentralBank {\r\n    string public name = \"Decentral Bank\";\r\n    address public owner;\r\n    Tether public tether;\r\n    RWD public rwd;\r\n    address[] public staker;\r\n\r\n    event TokensDeposited(address indexed user, uint256 amount);\r\n    \r\n    mapping(address => uint) public stakingBalance;\r\n    mapping(address => bool) public hasStaked;\r\n    mapping(address => bool) public isStaked;\r\n\r\n    constructor(RWD _rwd, Tether _tether) {\r\n        rwd = _rwd;\r\n        tether = _tether;\r\n        owner = msg.sender; // set the owner of the contract\r\n    }\r\n\r\n    function depositToken(uint _amount) public {\r\n    require(_amount > 0, 'amount is greater than 0');\r\n\r\n    uint approvedAmount = tether.allowance(msg.sender, address(this));\r\n    require(approvedAmount >= _amount, 'amount not approved');\r\n\r\n    tether.transferFrom(msg.sender, address(this), _amount);\r\n    stakingBalance[msg.sender] += _amount;\r\n\r\n    if(!hasStaked[msg.sender]){ // check if the sender has staked before\r\n        staker.push(msg.sender);\r\n    }\r\n\r\n    isStaked[msg.sender] = true;\r\n    hasStaked[msg.sender] = true;\r\n\r\n    emit TokensDeposited(msg.sender, _amount);\r\n }\r\n\r\n   function unstakeTokens() public{\r\n    uint balance = stakingBalance[msg.sender];\r\n    require(balance > 0,'staking balance can not be less than zero');\r\n\r\n    tether.transfer(msg.sender, balance);\r\n\r\n    stakingBalance[msg.sender] = 0;\r\n\r\n    isStaked[msg.sender] = false;\r\n   }\r\n   \r\n   function issueTokens() public {\r\n    require(msg.sender == owner , 'caller must be owner');\r\n\r\n    for (uint i=0;i<staker.length;i++) {\r\n        address recipient = staker[i];\r\n        uint balance = stakingBalance[recipient]/9;\r\n        if(balance > 0) {\r\n            rwd.transfer(recipient, balance);\r\n        }\r\n    }\r\n   }\r\n  \r\n}",
  "sourcePath": "C:\\Users\\User\\Desktop\\UDEMY\\web\\contracts\\DecentralBank.sol",
  "compiler": {
    "name": "solc",
    "version": "0.8.13+commit.abaa5c0e.Emscripten.clang"
  },
  "schemaVersion": "3.4.16",
  "updatedAt": "2024-08-07T19:24:19.472Z",
  "networkType": "ethereum",
  "devdoc": {
    "kind": "dev",
    "methods": {},
    "version": 1
  },
  "userdoc": {
    "kind": "user",
    "methods": {},
    "version": 1
  }
}