{
  "contractName": "Tether",
  "abi": [
    {
      "inputs": [],
      "stateMutability": "nonpayable",
      "type": "constructor"
    },
    {
      "anonymous": false,
      "inputs": [
        {
          "indexed": true,
          "internalType": "address",
          "name": "_owner",
          "type": "address"
        },
        {
          "indexed": true,
          "internalType": "address",
          "name": "_spender",
          "type": "address"
        },
        {
          "indexed": false,
          "internalType": "uint256",
          "name": "_value",
          "type": "uint256"
        }
      ],
      "name": "Approval",
      "type": "event"
    },
    {
      "anonymous": false,
      "inputs": [
        {
          "indexed": true,
          "internalType": "address",
          "name": "_from",
          "type": "address"
        },
        {
          "indexed": true,
          "internalType": "address",
          "name": "_to",
          "type": "address"
        },
        {
          "indexed": false,
          "internalType": "uint256",
          "name": "_value",
          "type": "uint256"
        }
      ],
      "name": "Transfer",
      "type": "event"
    },
    {
      "inputs": [
        {
          "internalType": "address",
          "name": "",
          "type": "address"
        },
        {
          "internalType": "address",
          "name": "",
          "type": "address"
        }
      ],
      "name": "allowance",
      "outputs": [
        {
          "internalType": "uint256",
          "name": "",
          "type": "uint256"
        }
      ],
      "stateMutability": "view",
      "type": "function",
      "constant": true
    },
    {
      "inputs": [
        {
          "internalType": "address",
          "name": "",
          "type": "address"
        }
      ],
      "name": "balanceof",
      "outputs": [
        {
          "internalType": "uint256",
          "name": "",
          "type": "uint256"
        }
      ],
      "stateMutability": "view",
      "type": "function",
      "constant": true
    },
    {
      "inputs": [],
      "name": "decimal",
      "outputs": [
        {
          "internalType": "uint256",
          "name": "",
          "type": "uint256"
        }
      ],
      "stateMutability": "view",
      "type": "function",
      "constant": true
    },
    {
      "inputs": [],
      "name": "name",
      "outputs": [
        {
          "internalType": "string",
          "name": "",
          "type": "string"
        }
      ],
      "stateMutability": "view",
      "type": "function",
      "constant": true
    },
    {
      "inputs": [],
      "name": "supply",
      "outputs": [
        {
          "internalType": "uint256",
          "name": "",
          "type": "uint256"
        }
      ],
      "stateMutability": "view",
      "type": "function",
      "constant": true
    },
    {
      "inputs": [],
      "name": "symbol",
      "outputs": [
        {
          "internalType": "string",
          "name": "",
          "type": "string"
        }
      ],
      "stateMutability": "view",
      "type": "function",
      "constant": true
    },
    {
      "inputs": [
        {
          "internalType": "address",
          "name": "_to",
          "type": "address"
        },
        {
          "internalType": "uint256",
          "name": "_value",
          "type": "uint256"
        }
      ],
      "name": "transfer",
      "outputs": [
        {
          "internalType": "bool",
          "name": "success",
          "type": "bool"
        }
      ],
      "stateMutability": "nonpayable",
      "type": "function"
    },
    {
      "inputs": [
        {
          "internalType": "address",
          "name": "_spender",
          "type": "address"
        },
        {
          "internalType": "uint256",
          "name": "_value",
          "type": "uint256"
        }
      ],
      "name": "approve",
      "outputs": [
        {
          "internalType": "bool",
          "name": "success",
          "type": "bool"
        }
      ],
      "stateMutability": "nonpayable",
      "type": "function"
    },
    {
      "inputs": [
        {
          "internalType": "address",
          "name": "_from",
          "type": "address"
        },
        {
          "internalType": "address",
          "name": "_to",
          "type": "address"
        },
        {
          "internalType": "uint256",
          "name": "_value",
          "type": "uint256"
        }
      ],
      "name": "transferFrom",
      "outputs": [
        {
          "internalType": "bool",
          "name": "success",
          "type": "bool"
        }
      ],
      "stateMutability": "nonpayable",
      "type": "function"
    }
  ],
  "bytecode": "0x60806040526040518060400160405280600681526020017f546574686572000000000000000000000000000000000000000000000000000081525060009080519060200190620000519291906200010d565b506040518060400160405280600581526020017f6455534454000000000000000000000000000000000000000000000000000000815250600190805190602001906200009f9291906200010d565b5069d3c21bcecceda10000006002556012600355348015620000c057600080fd5b50600254600460003373ffffffffffffffffffffffffffffffffffffffff1673ffffffffffffffffffffffffffffffffffffffff1681526020019081526020016000208190555062000221565b8280546200011b90620001ec565b90600052602060002090601f0160209004810192826200013f57600085556200018b565b82601f106200015a57805160ff19168380011785556200018b565b828001600101855582156200018b579182015b828111156200018a5782518255916020019190600101906200016d565b5b5090506200019a91906200019e565b5090565b5b80821115620001b95760008160009055506001016200019f565b5090565b7f4e487b7100000000000000000000000000000000000000000000000000000000600052602260045260246000fd5b600060028204905060018216806200020557607f821691505b6020821081036200021b576200021a620001bd565b5b50919050565b610c4980620002316000396000f3fe608060405234801561001057600080fd5b50600436106100935760003560e01c80633d64125b116100665780633d64125b1461013457806376809ce31461016457806395d89b4114610182578063a9059cbb146101a0578063dd62ed3e146101d057610093565b8063047fc9aa1461009857806306fdde03146100b6578063095ea7b3146100d457806323b872dd14610104575b600080fd5b6100a0610200565b6040516100ad919061085f565b60405180910390f35b6100be610206565b6040516100cb9190610913565b60405180910390f35b6100ee60048036038101906100e991906109c4565b610294565b6040516100fb9190610a1f565b60405180910390f35b61011e60048036038101906101199190610a3a565b610386565b60405161012b9190610a1f565b60405180910390f35b61014e60048036038101906101499190610a8d565b61060c565b60405161015b919061085f565b60405180910390f35b61016c610624565b604051610179919061085f565b60405180910390f35b61018a61062a565b6040516101979190610913565b60405180910390f35b6101ba60048036038101906101b591906109c4565b6106b8565b6040516101c79190610a1f565b60405180910390f35b6101ea60048036038101906101e59190610aba565b610821565b6040516101f7919061085f565b60405180910390f35b60025481565b6000805461021390610b29565b80601f016020809104026020016040519081016040528092919081815260200182805461023f90610b29565b801561028c5780601f106102615761010080835404028352916020019161028c565b820191906000526020600020905b81548152906001019060200180831161026f57829003601f168201915b505050505081565b600081600560003373ffffffffffffffffffffffffffffffffffffffff1673ffffffffffffffffffffffffffffffffffffffff16815260200190815260200160002060008573ffffffffffffffffffffffffffffffffffffffff1673ffffffffffffffffffffffffffffffffffffffff168152602001908152602001600020819055508273ffffffffffffffffffffffffffffffffffffffff163373ffffffffffffffffffffffffffffffffffffffff167f8c5be1e5ebec7d5bd14f71427d1e84f3dd0314c0f7b2291e5b200ac8c7c3b92584604051610374919061085f565b60405180910390a36001905092915050565b600081600460008673ffffffffffffffffffffffffffffffffffffffff1673ffffffffffffffffffffffffffffffffffffffff1681526020019081526020016000205410156103d457600080fd5b81600560008673ffffffffffffffffffffffffffffffffffffffff1673ffffffffffffffffffffffffffffffffffffffff16815260200190815260200160002060003373ffffffffffffffffffffffffffffffffffffffff1673ffffffffffffffffffffffffffffffffffffffff16815260200190815260200160002054101561045d57600080fd5b81600460008673ffffffffffffffffffffffffffffffffffffffff1673ffffffffffffffffffffffffffffffffffffffff16815260200190815260200160002060008282546104ac9190610b89565b9250508190555081600460008573ffffffffffffffffffffffffffffffffffffffff1673ffffffffffffffffffffffffffffffffffffffff16815260200190815260200160002060008282546105029190610bbd565b9250508190555081600560008673ffffffffffffffffffffffffffffffffffffffff1673ffffffffffffffffffffffffffffffffffffffff16815260200190815260200160002060003373ffffffffffffffffffffffffffffffffffffffff1673ffffffffffffffffffffffffffffffffffffffff16815260200190815260200160002060008282546105959190610b89565b925050819055508273ffffffffffffffffffffffffffffffffffffffff168473ffffffffffffffffffffffffffffffffffffffff167fddf252ad1be2c89b69c2b068fc378daa952ba7f163c4a11628f55a4df523b3ef846040516105f9919061085f565b60405180910390a3600190509392505050565b60046020528060005260406000206000915090505481565b60035481565b6001805461063790610b29565b80601f016020809104026020016040519081016040528092919081815260200182805461066390610b29565b80156106b05780601f10610685576101008083540402835291602001916106b0565b820191906000526020600020905b81548152906001019060200180831161069357829003601f168201915b505050505081565b600081600460003373ffffffffffffffffffffffffffffffffffffffff1673ffffffffffffffffffffffffffffffffffffffff16815260200190815260200160002054101561070657600080fd5b81600460003373ffffffffffffffffffffffffffffffffffffffff1673ffffffffffffffffffffffffffffffffffffffff16815260200190815260200160002060008282546107559190610b89565b9250508190555081600460008573ffffffffffffffffffffffffffffffffffffffff1673ffffffffffffffffffffffffffffffffffffffff16815260200190815260200160002060008282546107ab9190610bbd565b925050819055508273ffffffffffffffffffffffffffffffffffffffff163373ffffffffffffffffffffffffffffffffffffffff167fddf252ad1be2c89b69c2b068fc378daa952ba7f163c4a11628f55a4df523b3ef8460405161080f919061085f565b60405180910390a36001905092915050565b6005602052816000526040600020602052806000526040600020600091509150505481565b6000819050919050565b61085981610846565b82525050565b60006020820190506108746000830184610850565b92915050565b600081519050919050565b600082825260208201905092915050565b60005b838110156108b4578082015181840152602081019050610899565b838111156108c3576000848401525b50505050565b6000601f19601f8301169050919050565b60006108e58261087a565b6108ef8185610885565b93506108ff818560208601610896565b610908816108c9565b840191505092915050565b6000602082019050818103600083015261092d81846108da565b905092915050565b600080fd5b600073ffffffffffffffffffffffffffffffffffffffff82169050919050565b60006109658261093a565b9050919050565b6109758161095a565b811461098057600080fd5b50565b6000813590506109928161096c565b92915050565b6109a181610846565b81146109ac57600080fd5b50565b6000813590506109be81610998565b92915050565b600080604083850312156109db576109da610935565b5b60006109e985828601610983565b92505060206109fa858286016109af565b9150509250929050565b60008115159050919050565b610a1981610a04565b82525050565b6000602082019050610a346000830184610a10565b92915050565b600080600060608486031215610a5357610a52610935565b5b6000610a6186828701610983565b9350506020610a7286828701610983565b9250506040610a83868287016109af565b9150509250925092565b600060208284031215610aa357610aa2610935565b5b6000610ab184828501610983565b91505092915050565b60008060408385031215610ad157610ad0610935565b5b6000610adf85828601610983565b9250506020610af085828601610983565b9150509250929050565b7f4e487b7100000000000000000000000000000000000000000000000000000000600052602260045260246000fd5b60006002820490506001821680610b4157607f821691505b602082108103610b5457610b53610afa565b5b50919050565b7f4e487b7100000000000000000000000000000000000000000000000000000000600052601160045260246000fd5b6000610b9482610846565b9150610b9f83610846565b925082821015610bb257610bb1610b5a565b5b828203905092915050565b6000610bc882610846565b9150610bd383610846565b9250827fffffffffffffffffffffffffffffffffffffffffffffffffffffffffffffffff03821115610c0857610c07610b5a565b5b82820190509291505056fea2646970667358221220ab4c353ef5e0b6789931123c0980257b86cb8d3e7cba0e7e0ed25755ea007cf164736f6c634300080d0033",
  "immutableReferences": {},
  "source": "// SPDX-License-Identifier: GPL-3.0\r\n\r\npragma solidity >=0.5.0 <0.9.0;\r\n\r\ncontract Tether\r\n{\r\n    string public name = 'Tether';\r\n    string public symbol = 'dUSDT';\r\n    uint256 public supply = 1000000000000000000000000; // 1 million supply 1eth = 100000000000000000000 wie\r\n    uint public decimal = 18; \r\n\r\n    event Transfer(\r\n        address indexed _from,\r\n        address indexed _to,\r\n        uint _value \r\n    );\r\n\r\n    event Approval(\r\n        address indexed _owner,\r\n        address indexed _spender,\r\n        uint _value\r\n    );\r\n\r\n    mapping(address => uint) public balanceof;\r\n    mapping(address => mapping(address => uint)) public allowance;\r\n\r\n    constructor() {\r\n        balanceof[msg.sender] = supply;\r\n    }\r\n\r\n    function transfer(address _to , uint _value) public returns(bool success) {\r\n        require(balanceof[msg.sender] >= _value);\r\n        balanceof[msg.sender] -= _value;\r\n        balanceof[_to] += _value;\r\n        emit Transfer(msg.sender,_to,_value);\r\n        return true;\r\n    }\r\n\r\n    function approve(address _spender , uint _value) public returns (bool success) {\r\n        allowance[msg.sender][_spender] = _value;\r\n        emit Approval(msg.sender, _spender, _value);\r\n        return true;\r\n    }\r\n\r\n    function transferFrom(address _from , address _to , uint _value) public returns(bool success) {\r\n        require(balanceof[_from] >= _value);\r\n        require(allowance[_from][msg.sender] >= _value);\r\n        balanceof[_from] -= _value;\r\n        balanceof[_to] += _value;\r\n        allowance[_from][msg.sender] -= _value;\r\n        emit Transfer(_from,_to,_value);\r\n        return true; \r\n    }\r\n}",
  "sourcePath": "C:\\Users\\User\\Desktop\\UDEMY\\web\\contracts\\Tether.sol",
  "compiler": {
    "name": "solc",
    "version": "0.8.13+commit.abaa5c0e.Emscripten.clang"
  },
  "schemaVersion": "3.4.16",
  "updatedAt": "2024-08-07T19:24:19.461Z",
  "networkType": "ethereum",
  "devdoc": {
    "kind": "dev",
    "methods": {},
    "version": 1
  },
  "userdoc": {
    "kind": "user",
    "methods": {},
    "version": 1
  }
}